{
  "contractName": "Certificate",
  "abi": [
    {
      "constant": true,
      "inputs": [],
      "name": "owner",
      "outputs": [
        {
          "name": "",
          "type": "address"
        }
      ],
      "payable": false,
      "stateMutability": "view",
      "type": "function"
    },
    {
      "inputs": [
        {
          "name": "_addressOfAwardee",
          "type": "address"
        },
        {
          "name": "_aadhaarNumberOfAwardee",
          "type": "string"
        },
        {
          "name": "_nameOfAwardee",
          "type": "string"
        },
        {
          "name": "_addressOfUniversity",
          "type": "address"
        },
        {
          "name": "_nameOfUniversity",
          "type": "string"
        },
        {
          "name": "_nameOFTheDegree",
          "type": "string"
        },
        {
          "name": "_grades",
          "type": "string"
        }
      ],
      "payable": false,
      "stateMutability": "nonpayable",
      "type": "constructor"
    }
  ],
  "bytecode": "0x6060604052341561000f57600080fd5b60405161033c38038061033c8339810160405280805190602001909190805182019190602001805182019190602001805190602001909190805182019190602001805182019190602001805182019190505086600160006101000a81548173ffffffffffffffffffffffffffffffffffffffff021916908373ffffffffffffffffffffffffffffffffffffffff16021790555085600290805190602001906100b89291906101a2565b5084600390805190602001906100cf9291906101a2565b5083600460006101000a81548173ffffffffffffffffffffffffffffffffffffffff021916908373ffffffffffffffffffffffffffffffffffffffff16021790555082600590805190602001906101279291906101a2565b50816006908051906020019061013e9291906101a2565b5080600790805190602001906101559291906101a2565b50836000806101000a81548173ffffffffffffffffffffffffffffffffffffffff021916908373ffffffffffffffffffffffffffffffffffffffff16021790555050505050505050610247565b828054600181600116156101000203166002900490600052602060002090601f016020900481019282601f106101e357805160ff1916838001178555610211565b82800160010185558215610211579182015b828111156102105782518255916020019190600101906101f5565b5b50905061021e9190610222565b5090565b61024491905b80821115610240576000816000905550600101610228565b5090565b90565b60e7806102556000396000f300606060405260043610603f576000357c0100000000000000000000000000000000000000000000000000000000900463ffffffff1680638da5cb5b146044575b600080fd5b3415604e57600080fd5b60546096565b604051808273ffffffffffffffffffffffffffffffffffffffff1673ffffffffffffffffffffffffffffffffffffffff16815260200191505060405180910390f35b6000809054906101000a900473ffffffffffffffffffffffffffffffffffffffff16815600a165627a7a723058207f2c9292ffbbd12c49a8b3efb885ae26054605672c2bcff0147010e925cb466b0029",
  "source": "pragma solidity ^0.4.15;\n\nimport \"./Owned.sol\";\n\ncontract Certificate {\n    address public owner;\n    address addressOfAwardee;\n    string aadhaarNumberOfAwardee;\n    string nameOfAwardee;\n    address addressOfUniversity;\n    string nameOfUniversity;\n    string nameOFTheDegree;\n    string grades;\n\n    \n    function Certificate(\n        address _addressOfAwardee,\n        string _aadhaarNumberOfAwardee,\n        string _nameOfAwardee,\n        address _addressOfUniversity,\n        string _nameOfUniversity,\n        string _nameOFTheDegree,\n        string _grades\n        ) public \n        {\n        addressOfAwardee = _addressOfAwardee;\n        aadhaarNumberOfAwardee = _aadhaarNumberOfAwardee;\n        nameOfAwardee = _nameOfAwardee;\n        addressOfUniversity = _addressOfUniversity;\n        nameOfUniversity = _nameOfUniversity;\n        nameOFTheDegree = _nameOFTheDegree;\n        grades = _grades;\n        owner = _addressOfUniversity;    \n    }\n    \n}\n",
  "sourcePath": "/home/kishan/CertChain/CertChain/contracts/Certificate.sol",
  "compiler": {
    "name": "solc",
    "version": "0.4.18+commit.9cf6e910.Emscripten.clang"
  },
  "schemaVersion": "1.0.1",
  "updatedAt": "2017-11-12T08:18:28.388Z"
}