{
  "contractName": "Certificate",
  "abi": [
    {
      "constant": true,
      "inputs": [],
      "name": "owner",
      "outputs": [
        {
          "name": "",
          "type": "address"
        }
      ],
      "payable": false,
      "stateMutability": "view",
      "type": "function"
    },
    {
      "inputs": [
        {
          "name": "_addressOfAwardee",
          "type": "address"
        },
        {
          "name": "_nameOfAwardee",
          "type": "string"
        },
        {
          "name": "_addressOfUniversity",
          "type": "address"
        },
        {
          "name": "_nameOfUniversity",
          "type": "string"
        },
        {
          "name": "_nameOFTheDegree",
          "type": "string"
        },
        {
          "name": "_grades",
          "type": "string"
        },
        {
          "name": "_owner",
          "type": "address"
        }
      ],
      "payable": false,
      "stateMutability": "nonpayable",
      "type": "constructor"
    }
  ],
  "bytecode": "0x6060604052341561000f57600080fd5b6040516103283803806103288339810160405280805190602001909190805182019190602001805190602001909190805182019190602001805182019190602001805182019190602001805190602001909190505086600160006101000a81548173ffffffffffffffffffffffffffffffffffffffff021916908373ffffffffffffffffffffffffffffffffffffffff16021790555085600290805190602001906100bb92919061018e565b5084600360006101000a81548173ffffffffffffffffffffffffffffffffffffffff021916908373ffffffffffffffffffffffffffffffffffffffff160217905550836004908051906020019061011392919061018e565b50826005908051906020019061012a92919061018e565b50816006908051906020019061014192919061018e565b50806000806101000a81548173ffffffffffffffffffffffffffffffffffffffff021916908373ffffffffffffffffffffffffffffffffffffffff16021790555050505050505050610233565b828054600181600116156101000203166002900490600052602060002090601f016020900481019282601f106101cf57805160ff19168380011785556101fd565b828001600101855582156101fd579182015b828111156101fc5782518255916020019190600101906101e1565b5b50905061020a919061020e565b5090565b61023091905b8082111561022c576000816000905550600101610214565b5090565b90565b60e7806102416000396000f300606060405260043610603f576000357c0100000000000000000000000000000000000000000000000000000000900463ffffffff1680638da5cb5b146044575b600080fd5b3415604e57600080fd5b60546096565b604051808273ffffffffffffffffffffffffffffffffffffffff1673ffffffffffffffffffffffffffffffffffffffff16815260200191505060405180910390f35b6000809054906101000a900473ffffffffffffffffffffffffffffffffffffffff16815600a165627a7a72305820167b361d29b0525df878c366d864e9d0bc8d1565cd8c6bfd0c1d9f0df5ffb9230029",
  "source": "pragma solidity ^0.4.15;\n\nimport \"./Owned.sol\";\n\ncontract Certificate {\n    address public owner;\n    address addressOfAwardee;\n    string nameOfAwardee;\n    address addressOfUniversity;\n    string nameOfUniversity;\n    string nameOFTheDegree;\n    string grades;\n\n    \n    function Certificate(\n        address _addressOfAwardee,\n        string _nameOfAwardee,\n        address _addressOfUniversity,\n        string _nameOfUniversity,\n        string _nameOFTheDegree,\n        string _grades,\n        address _owner\n        ) public \n        {\n        addressOfAwardee = _addressOfAwardee;\n        nameOfAwardee = _nameOfAwardee;\n        addressOfUniversity = _addressOfUniversity;\n        nameOfUniversity = _nameOfUniversity;\n        nameOFTheDegree = _nameOFTheDegree;\n        grades = _grades;\n        owner = _owner;    \n    }\n    \n}\n",
  "sourcePath": "/home/kishan/CertChain/CertChain/contracts/Certificate.sol",
  "compiler": {
    "name": "solc",
    "version": "0.4.18+commit.9cf6e910.Emscripten.clang"
  },
  "schemaVersion": "1.0.1",
  "updatedAt": "2017-11-11T10:27:45.538Z"
}