{
  "contractName": "Owned",
  "abi": [
    {
      "constant": false,
      "inputs": [
        {
          "name": "newOwner",
          "type": "address"
        }
      ],
      "name": "setOwner",
      "outputs": [
        {
          "name": "success",
          "type": "bool"
        }
      ],
      "payable": false,
      "stateMutability": "nonpayable",
      "type": "function"
    },
    {
      "constant": true,
      "inputs": [],
      "name": "getOwner",
      "outputs": [
        {
          "name": "",
          "type": "address"
        }
      ],
      "payable": false,
      "stateMutability": "view",
      "type": "function"
    },
    {
      "constant": true,
      "inputs": [],
      "name": "owner",
      "outputs": [
        {
          "name": "",
          "type": "address"
        }
      ],
      "payable": false,
      "stateMutability": "view",
      "type": "function"
    },
    {
      "inputs": [],
      "payable": false,
      "stateMutability": "nonpayable",
      "type": "constructor"
    },
    {
      "anonymous": false,
      "inputs": [
        {
          "indexed": false,
          "name": "prev",
          "type": "address"
        },
        {
          "indexed": false,
          "name": "newOwner",
          "type": "address"
        }
      ],
      "name": "LogOwnerSet",
      "type": "event"
    }
  ],
  "bytecode": "0x6060604052341561000f57600080fd5b336000806101000a81548173ffffffffffffffffffffffffffffffffffffffff021916908373ffffffffffffffffffffffffffffffffffffffff1602179055506103b68061005e6000396000f300606060405260043610610057576000357c0100000000000000000000000000000000000000000000000000000000900463ffffffff16806313af40351461005c578063893d20e8146100ad5780638da5cb5b14610102575b600080fd5b341561006757600080fd5b610093600480803573ffffffffffffffffffffffffffffffffffffffff16906020019091905050610157565b604051808215151515815260200191505060405180910390f35b34156100b857600080fd5b6100c061033c565b604051808273ffffffffffffffffffffffffffffffffffffffff1673ffffffffffffffffffffffffffffffffffffffff16815260200191505060405180910390f35b341561010d57600080fd5b610115610365565b604051808273ffffffffffffffffffffffffffffffffffffffff1673ffffffffffffffffffffffffffffffffffffffff16815260200191505060405180910390f35b6000806000809054906101000a900473ffffffffffffffffffffffffffffffffffffffff1673ffffffffffffffffffffffffffffffffffffffff163373ffffffffffffffffffffffffffffffffffffffff161415156101b557600080fd5b60008373ffffffffffffffffffffffffffffffffffffffff16141515156101db57600080fd5b6000809054906101000a900473ffffffffffffffffffffffffffffffffffffffff1673ffffffffffffffffffffffffffffffffffffffff168373ffffffffffffffffffffffffffffffffffffffff161415151561023757600080fd5b6000809054906101000a900473ffffffffffffffffffffffffffffffffffffffff169050826000806101000a81548173ffffffffffffffffffffffffffffffffffffffff021916908373ffffffffffffffffffffffffffffffffffffffff1602179055507fa1d2149652d81eb35c360c115fc7ac594124cb1ea8a5a33e9a7f5768c62869fb8184604051808373ffffffffffffffffffffffffffffffffffffffff1673ffffffffffffffffffffffffffffffffffffffff1681526020018273ffffffffffffffffffffffffffffffffffffffff1673ffffffffffffffffffffffffffffffffffffffff1681526020019250505060405180910390a16001915050919050565b60008060009054906101000a900473ffffffffffffffffffffffffffffffffffffffff16905090565b6000809054906101000a900473ffffffffffffffffffffffffffffffffffffffff16815600a165627a7a72305820223fa59156edba8fdd8993a5dd5c0a936b74ab424ccf90bb41f88bd90114b8aa0029",
  "source": "pragma solidity ^0.4.13;\n\ncontract Owned {\n    address public owner;\n    event LogOwnerSet(address prev, address newOwner);\n    \n    modifier onlyOwner() {\n      require(msg.sender == owner);\n      _;\n    }\n\n    function Owned() public {\n      owner = msg.sender;\n    }\n\n    /**\n     * Sets the new owner for this contract.\n     *   - only the current owner can call this function\n     *   - only a new address can be accepted\n     *   - only a non-0 address can be accepted\n     * @param newOwner The new owner of the contract\n     * @return Whether the action was successful.\n     * Emits LogOwnerSet.\n     */\n    function setOwner(address newOwner) public onlyOwner returns(bool success) {\n      require(newOwner != 0);\n      require(newOwner != owner);\n      address prev = owner;\n      owner = newOwner;\n      LogOwnerSet(prev, newOwner);\n      return true;\n    }\n\n    /**\n     * @return The owner of this contract.\n     */\n    function getOwner() public constant returns(address) {\n      return owner;\n    }\n}",
  "sourcePath": "/home/kishan/CertChain/CertChain/contracts/Owned.sol",
  "compiler": {
    "name": "solc",
    "version": "0.4.18+commit.9cf6e910.Emscripten.clang"
  },
  "schemaVersion": "1.0.1",
  "updatedAt": "2017-11-11T16:32:32.084Z"
}