{
  "contractName": "University",
  "abi": [
    {
      "constant": true,
      "inputs": [],
      "name": "name",
      "outputs": [
        {
          "name": "",
          "type": "string"
        }
      ],
      "payable": false,
      "stateMutability": "view",
      "type": "function"
    },
    {
      "constant": false,
      "inputs": [
        {
          "name": "_addressOfAwardee",
          "type": "address"
        },
        {
          "name": "_nameOfAwardee",
          "type": "string"
        },
        {
          "name": "_addressOfUniversity",
          "type": "address"
        },
        {
          "name": "_nameOfUniversity",
          "type": "string"
        },
        {
          "name": "_nameOfTheDegree",
          "type": "string"
        },
        {
          "name": "_grades",
          "type": "string"
        }
      ],
      "name": "AddCertificate",
      "outputs": [
        {
          "name": "certificate",
          "type": "address"
        }
      ],
      "payable": false,
      "stateMutability": "nonpayable",
      "type": "function"
    },
    {
      "constant": true,
      "inputs": [],
      "name": "owner",
      "outputs": [
        {
          "name": "",
          "type": "address"
        }
      ],
      "payable": false,
      "stateMutability": "view",
      "type": "function"
    },
    {
      "constant": true,
      "inputs": [],
      "name": "recognizingBody",
      "outputs": [
        {
          "name": "",
          "type": "address"
        }
      ],
      "payable": false,
      "stateMutability": "view",
      "type": "function"
    },
    {
      "inputs": [
        {
          "name": "_recognizingBody",
          "type": "address"
        },
        {
          "name": "_owner",
          "type": "address"
        },
        {
          "name": "_name",
          "type": "string"
        }
      ],
      "payable": false,
      "stateMutability": "nonpayable",
      "type": "constructor"
    },
    {
      "anonymous": false,
      "inputs": [
        {
          "indexed": false,
          "name": "_addressOfAwardee",
          "type": "address"
        },
        {
          "indexed": false,
          "name": "_nameOfAwardee",
          "type": "string"
        },
        {
          "indexed": false,
          "name": "_addressOfUniversity",
          "type": "address"
        },
        {
          "indexed": false,
          "name": "_nameOfUniversity",
          "type": "string"
        },
        {
          "indexed": false,
          "name": "_nameOfTheDegree",
          "type": "string"
        },
        {
          "indexed": false,
          "name": "_grades",
          "type": "string"
        },
        {
          "indexed": false,
          "name": "_owner",
          "type": "address"
        }
      ],
      "name": "CertificateAddedLog",
      "type": "event"
    }
  ],
  "bytecode": "0x6060604052341561000f57600080fd5b604051610e61380380610e618339810160405280805190602001909190805190602001909190805182019190505082600160006101000a81548173ffffffffffffffffffffffffffffffffffffffff021916908373ffffffffffffffffffffffffffffffffffffffff160217905550816000806101000a81548173ffffffffffffffffffffffffffffffffffffffff021916908373ffffffffffffffffffffffffffffffffffffffff16021790555080600290805190602001906100d49291906100dd565b50505050610182565b828054600181600116156101000203166002900490600052602060002090601f016020900481019282601f1061011e57805160ff191683800117855561014c565b8280016001018555821561014c579182015b8281111561014b578251825591602001919060010190610130565b5b509050610159919061015d565b5090565b61017f91905b8082111561017b576000816000905550600101610163565b5090565b90565b610cd0806101916000396000f300606060405260043610610062576000357c0100000000000000000000000000000000000000000000000000000000900463ffffffff16806306fdde031461006757806362f332e7146100f55780638da5cb5b14610299578063d6f3579a146102ee575b600080fd5b341561007257600080fd5b61007a610343565b6040518080602001828103825283818151815260200191508051906020019080838360005b838110156100ba57808201518184015260208101905061009f565b50505050905090810190601f1680156100e75780820380516001836020036101000a031916815260200191505b509250505060405180910390f35b341561010057600080fd5b610257600480803573ffffffffffffffffffffffffffffffffffffffff1690602001909190803590602001908201803590602001908080601f0160208091040260200160405190810160405280939291908181526020018383808284378201915050505050509190803573ffffffffffffffffffffffffffffffffffffffff1690602001909190803590602001908201803590602001908080601f0160208091040260200160405190810160405280939291908181526020018383808284378201915050505050509190803590602001908201803590602001908080601f0160208091040260200160405190810160405280939291908181526020018383808284378201915050505050509190803590602001908201803590602001908080601f016020809104026020016040519081016040528093929190818152602001838380828437820191505050505050919050506103e1565b604051808273ffffffffffffffffffffffffffffffffffffffff1673ffffffffffffffffffffffffffffffffffffffff16815260200191505060405180910390f35b34156102a457600080fd5b6102ac610921565b604051808273ffffffffffffffffffffffffffffffffffffffff1673ffffffffffffffffffffffffffffffffffffffff16815260200191505060405180910390f35b34156102f957600080fd5b610301610946565b604051808273ffffffffffffffffffffffffffffffffffffffff1673ffffffffffffffffffffffffffffffffffffffff16815260200191505060405180910390f35b60028054600181600116156101000203166002900480601f0160208091040260200160405190810160405280929190818152602001828054600181600116156101000203166002900480156103d95780601f106103ae576101008083540402835291602001916103d9565b820191906000526020600020905b8154815290600101906020018083116103bc57829003601f168201915b505050505081565b60008686868686866000809054906101000a900473ffffffffffffffffffffffffffffffffffffffff1661041361096c565b808873ffffffffffffffffffffffffffffffffffffffff1673ffffffffffffffffffffffffffffffffffffffff168152602001806020018773ffffffffffffffffffffffffffffffffffffffff1673ffffffffffffffffffffffffffffffffffffffff1681526020018060200180602001806020018673ffffffffffffffffffffffffffffffffffffffff1673ffffffffffffffffffffffffffffffffffffffff16815260200185810385528b818151815260200191508051906020019080838360005b838110156104f25780820151818401526020810190506104d7565b50505050905090810190601f16801561051f5780820380516001836020036101000a031916815260200191505b50858103845289818151815260200191508051906020019080838360005b8381101561055857808201518184015260208101905061053d565b50505050905090810190601f1680156105855780820380516001836020036101000a031916815260200191505b50858103835288818151815260200191508051906020019080838360005b838110156105be5780820151818401526020810190506105a3565b50505050905090810190601f1680156105eb5780820380516001836020036101000a031916815260200191505b50858103825287818151815260200191508051906020019080838360005b83811015610624578082015181840152602081019050610609565b50505050905090810190601f1680156106515780820380516001836020036101000a031916815260200191505b509b505050505050505050505050604051809103906000f080151561067557600080fd5b90507f757f5a8b82fa7d905e974203b2b0d89a85bdd56f92cd4912a1cbaf286761ba278787878787876000809054906101000a900473ffffffffffffffffffffffffffffffffffffffff16604051808873ffffffffffffffffffffffffffffffffffffffff1673ffffffffffffffffffffffffffffffffffffffff168152602001806020018773ffffffffffffffffffffffffffffffffffffffff1673ffffffffffffffffffffffffffffffffffffffff1681526020018060200180602001806020018673ffffffffffffffffffffffffffffffffffffffff1673ffffffffffffffffffffffffffffffffffffffff16815260200185810385528b818151815260200191508051906020019080838360005b838110156107a2578082015181840152602081019050610787565b50505050905090810190601f1680156107cf5780820380516001836020036101000a031916815260200191505b50858103845289818151815260200191508051906020019080838360005b838110156108085780820151818401526020810190506107ed565b50505050905090810190601f1680156108355780820380516001836020036101000a031916815260200191505b50858103835288818151815260200191508051906020019080838360005b8381101561086e578082015181840152602081019050610853565b50505050905090810190601f16801561089b5780820380516001836020036101000a031916815260200191505b50858103825287818151815260200191508051906020019080838360005b838110156108d45780820151818401526020810190506108b9565b50505050905090810190601f1680156109015780820380516001836020036101000a031916815260200191505b509b50505050505050505050505060405180910390a19695505050505050565b6000809054906101000a900473ffffffffffffffffffffffffffffffffffffffff1681565b600160009054906101000a900473ffffffffffffffffffffffffffffffffffffffff1681565b6040516103288061097d8339019056006060604052341561000f57600080fd5b6040516103283803806103288339810160405280805190602001909190805182019190602001805190602001909190805182019190602001805182019190602001805182019190602001805190602001909190505086600160006101000a81548173ffffffffffffffffffffffffffffffffffffffff021916908373ffffffffffffffffffffffffffffffffffffffff16021790555085600290805190602001906100bb92919061018e565b5084600360006101000a81548173ffffffffffffffffffffffffffffffffffffffff021916908373ffffffffffffffffffffffffffffffffffffffff160217905550836004908051906020019061011392919061018e565b50826005908051906020019061012a92919061018e565b50816006908051906020019061014192919061018e565b50806000806101000a81548173ffffffffffffffffffffffffffffffffffffffff021916908373ffffffffffffffffffffffffffffffffffffffff16021790555050505050505050610233565b828054600181600116156101000203166002900490600052602060002090601f016020900481019282601f106101cf57805160ff19168380011785556101fd565b828001600101855582156101fd579182015b828111156101fc5782518255916020019190600101906101e1565b5b50905061020a919061020e565b5090565b61023091905b8082111561022c576000816000905550600101610214565b5090565b90565b60e7806102416000396000f300606060405260043610603f576000357c0100000000000000000000000000000000000000000000000000000000900463ffffffff1680638da5cb5b146044575b600080fd5b3415604e57600080fd5b60546096565b604051808273ffffffffffffffffffffffffffffffffffffffff1673ffffffffffffffffffffffffffffffffffffffff16815260200191505060405180910390f35b6000809054906101000a900473ffffffffffffffffffffffffffffffffffffffff16815600a165627a7a72305820167b361d29b0525df878c366d864e9d0bc8d1565cd8c6bfd0c1d9f0df5ffb9230029a165627a7a7230582020752b774c00c45ecc9248d4a27655288971494d8dfb345e25a72c3e0ca2d2f00029",
  "source": "pragma solidity ^0.4.15;\n\nimport \"./Certificate.sol\";\nimport \"./Owned.sol\";\n\ncontract University {\n    address public owner;\n    address public recognizingBody;\n    string public name;\n    event CertificateAddedLog(\n        address _addressOfAwardee,\n        string _nameOfAwardee,\n        address _addressOfUniversity,\n        string _nameOfUniversity,\n        string _nameOfTheDegree,\n        string _grades,\n        address _owner\n        );\n\n    function University(address _recognizingBody, address _owner, string _name) public {\n        recognizingBody = _recognizingBody;\n        owner = _owner;\n        name = _name;\n    }\n    \n    function AddCertificate(\n        address _addressOfAwardee,\n        string _nameOfAwardee,\n        address _addressOfUniversity,\n        string _nameOfUniversity,\n        string _nameOfTheDegree,\n        string _grades\n        ) public returns(Certificate certificate)\n        {\n        certificate = new Certificate(\n            _addressOfAwardee,\n            _nameOfAwardee, \n            _addressOfUniversity, \n            _nameOfUniversity,\n            _nameOfTheDegree, \n            _grades, \n            owner);\n\n        CertificateAddedLog(\n            _addressOfAwardee,\n            _nameOfAwardee, \n            _addressOfUniversity, \n            _nameOfUniversity,\n            _nameOfTheDegree, \n            _grades, \n            owner);    \n    }\n    \n}\n\n",
  "sourcePath": "/home/kishan/CertChain/CertChain/contracts/University.sol",
  "compiler": {
    "name": "solc",
    "version": "0.4.18+commit.9cf6e910.Emscripten.clang"
  },
  "schemaVersion": "1.0.1",
  "updatedAt": "2017-11-11T10:27:45.552Z"
}