{
  "contractName": "University",
  "abi": [
    {
      "constant": true,
      "inputs": [],
      "name": "name",
      "outputs": [
        {
          "name": "",
          "type": "string"
        }
      ],
      "payable": false,
      "stateMutability": "view",
      "type": "function"
    },
    {
      "constant": false,
      "inputs": [
        {
          "name": "_addressOfAwardee",
          "type": "address"
        },
        {
          "name": "_aadhaarNumberOfAwardee",
          "type": "string"
        },
        {
          "name": "_nameOfAwardee",
          "type": "string"
        },
        {
          "name": "_nameOfTheDegree",
          "type": "string"
        },
        {
          "name": "_grades",
          "type": "string"
        },
        {
          "name": "_grades",
          "type": "string"
        }
      ],
      "name": "addCertificate",
      "outputs": [
        {
          "name": "certificate",
          "type": "address"
        }
      ],
      "payable": false,
      "stateMutability": "nonpayable",
      "type": "function"
    },
    {
      "constant": true,
      "inputs": [],
      "name": "owner",
      "outputs": [
        {
          "name": "",
          "type": "address"
        }
      ],
      "payable": false,
      "stateMutability": "view",
      "type": "function"
    },
    {
      "constant": true,
      "inputs": [],
      "name": "recognizingBody",
      "outputs": [
        {
          "name": "",
          "type": "address"
        }
      ],
      "payable": false,
      "stateMutability": "view",
      "type": "function"
    },
    {
      "inputs": [
        {
          "name": "_recognizingBody",
          "type": "address"
        },
        {
          "name": "_owner",
          "type": "address"
        },
        {
          "name": "_name",
          "type": "string"
        }
      ],
      "payable": false,
      "stateMutability": "nonpayable",
      "type": "constructor"
    },
    {
      "anonymous": false,
      "inputs": [
        {
          "indexed": false,
          "name": "_addressOfAwardee",
          "type": "address"
        },
        {
          "indexed": false,
          "name": "_aadhaarNumberOfAwardee",
          "type": "string"
        },
        {
          "indexed": false,
          "name": "_nameOfAwardee",
          "type": "string"
        },
        {
          "indexed": false,
          "name": "_addressOfUniversity",
          "type": "address"
        },
        {
          "indexed": false,
          "name": "_nameOfUniversity",
          "type": "string"
        },
        {
          "indexed": false,
          "name": "_nameOfTheDegree",
          "type": "string"
        },
        {
          "indexed": false,
          "name": "_grades",
          "type": "string"
        },
        {
          "indexed": false,
          "name": "_owner",
          "type": "address"
        }
      ],
      "name": "CertificateAddedLog",
      "type": "event"
    }
  ],
  "bytecode": "0x6060604052341561000f57600080fd5b604051610f71380380610f718339810160405280805190602001909190805190602001909190805182019190505082600160006101000a81548173ffffffffffffffffffffffffffffffffffffffff021916908373ffffffffffffffffffffffffffffffffffffffff160217905550816000806101000a81548173ffffffffffffffffffffffffffffffffffffffff021916908373ffffffffffffffffffffffffffffffffffffffff16021790555080600290805190602001906100d49291906100dd565b50505050610182565b828054600181600116156101000203166002900490600052602060002090601f016020900481019282601f1061011e57805160ff191683800117855561014c565b8280016001018555821561014c579182015b8281111561014b578251825591602001919060010190610130565b5b509050610159919061015d565b5090565b61017f91905b8082111561017b576000816000905550600101610163565b5090565b90565b610de0806101916000396000f300606060405260043610610062576000357c0100000000000000000000000000000000000000000000000000000000900463ffffffff16806306fdde031461006757806383ef549d146100f55780638da5cb5b1461027a578063d6f3579a146102cf575b600080fd5b341561007257600080fd5b61007a610324565b6040518080602001828103825283818151815260200191508051906020019080838360005b838110156100ba57808201518184015260208101905061009f565b50505050905090810190601f1680156100e75780820380516001836020036101000a031916815260200191505b509250505060405180910390f35b341561010057600080fd5b610238600480803573ffffffffffffffffffffffffffffffffffffffff1690602001909190803590602001908201803590602001908080601f0160208091040260200160405190810160405280939291908181526020018383808284378201915050505050509190803590602001908201803590602001908080601f0160208091040260200160405190810160405280939291908181526020018383808284378201915050505050509190803590602001908201803590602001908080601f0160208091040260200160405190810160405280939291908181526020018383808284378201915050505050509190803590602001908201803590602001908080601f016020809104026020016040519081016040528093929190818152602001838380828437820191505050505050919050506103c2565b604051808273ffffffffffffffffffffffffffffffffffffffff1673ffffffffffffffffffffffffffffffffffffffff16815260200191505060405180910390f35b341561028557600080fd5b61028d610a1d565b604051808273ffffffffffffffffffffffffffffffffffffffff1673ffffffffffffffffffffffffffffffffffffffff16815260200191505060405180910390f35b34156102da57600080fd5b6102e2610a42565b604051808273ffffffffffffffffffffffffffffffffffffffff1673ffffffffffffffffffffffffffffffffffffffff16815260200191505060405180910390f35b60028054600181600116156101000203166002900480601f0160208091040260200160405190810160405280929190818152602001828054600181600116156101000203166002900480156103ba5780601f1061038f576101008083540402835291602001916103ba565b820191906000526020600020905b81548152906001019060200180831161039d57829003601f168201915b505050505081565b60008060009054906101000a900473ffffffffffffffffffffffffffffffffffffffff1673ffffffffffffffffffffffffffffffffffffffff163373ffffffffffffffffffffffffffffffffffffffff1614151561041f57600080fd5b858585336002878761042f610a68565b808873ffffffffffffffffffffffffffffffffffffffff1673ffffffffffffffffffffffffffffffffffffffff16815260200180602001806020018773ffffffffffffffffffffffffffffffffffffffff1673ffffffffffffffffffffffffffffffffffffffff16815260200180602001806020018060200186810386528c818151815260200191508051906020019080838360005b838110156104e05780820151818401526020810190506104c5565b50505050905090810190601f16801561050d5780820380516001836020036101000a031916815260200191505b5086810385528b818151815260200191508051906020019080838360005b8381101561054657808201518184015260208101905061052b565b50505050905090810190601f1680156105735780820380516001836020036101000a031916815260200191505b508681038452898181546001816001161561010002031660029004815260200191508054600181600116156101000203166002900480156105f55780601f106105ca576101008083540402835291602001916105f5565b820191906000526020600020905b8154815290600101906020018083116105d857829003601f168201915b5050868103835288818151815260200191508051906020019080838360005b8381101561062f578082015181840152602081019050610614565b50505050905090810190601f16801561065c5780820380516001836020036101000a031916815260200191505b50868103825287818151815260200191508051906020019080838360005b8381101561069557808201518184015260208101905061067a565b50505050905090810190601f1680156106c25780820380516001836020036101000a031916815260200191505b509c50505050505050505050505050604051809103906000f08015156106e757600080fd5b90507fd048e29166f34ef24ee9bea1243fa11ce46c8c9b89fdac46381df672e2e9c01886868633600288886000809054906101000a900473ffffffffffffffffffffffffffffffffffffffff16604051808973ffffffffffffffffffffffffffffffffffffffff1673ffffffffffffffffffffffffffffffffffffffff16815260200180602001806020018873ffffffffffffffffffffffffffffffffffffffff1673ffffffffffffffffffffffffffffffffffffffff1681526020018060200180602001806020018773ffffffffffffffffffffffffffffffffffffffff1673ffffffffffffffffffffffffffffffffffffffff16815260200186810386528d818151815260200191508051906020019080838360005b8381101561081a5780820151818401526020810190506107ff565b50505050905090810190601f1680156108475780820380516001836020036101000a031916815260200191505b5086810385528c818151815260200191508051906020019080838360005b83811015610880578082015181840152602081019050610865565b50505050905090810190601f1680156108ad5780820380516001836020036101000a031916815260200191505b5086810384528a81815460018160011615610100020316600290048152602001915080546001816001161561010002031660029004801561092f5780601f106109045761010080835404028352916020019161092f565b820191906000526020600020905b81548152906001019060200180831161091257829003601f168201915b5050868103835289818151815260200191508051906020019080838360005b8381101561096957808201518184015260208101905061094e565b50505050905090810190601f1680156109965780820380516001836020036101000a031916815260200191505b50868103825288818151815260200191508051906020019080838360005b838110156109cf5780820151818401526020810190506109b4565b50505050905090810190601f1680156109fc5780820380516001836020036101000a031916815260200191505b509d505050505050505050505050505060405180910390a195945050505050565b6000809054906101000a900473ffffffffffffffffffffffffffffffffffffffff1681565b600160009054906101000a900473ffffffffffffffffffffffffffffffffffffffff1681565b60405161033c80610a798339019056006060604052341561000f57600080fd5b60405161033c38038061033c8339810160405280805190602001909190805182019190602001805182019190602001805190602001909190805182019190602001805182019190602001805182019190505086600160006101000a81548173ffffffffffffffffffffffffffffffffffffffff021916908373ffffffffffffffffffffffffffffffffffffffff16021790555085600290805190602001906100b89291906101a2565b5084600390805190602001906100cf9291906101a2565b5083600460006101000a81548173ffffffffffffffffffffffffffffffffffffffff021916908373ffffffffffffffffffffffffffffffffffffffff16021790555082600590805190602001906101279291906101a2565b50816006908051906020019061013e9291906101a2565b5080600790805190602001906101559291906101a2565b50836000806101000a81548173ffffffffffffffffffffffffffffffffffffffff021916908373ffffffffffffffffffffffffffffffffffffffff16021790555050505050505050610247565b828054600181600116156101000203166002900490600052602060002090601f016020900481019282601f106101e357805160ff1916838001178555610211565b82800160010185558215610211579182015b828111156102105782518255916020019190600101906101f5565b5b50905061021e9190610222565b5090565b61024491905b80821115610240576000816000905550600101610228565b5090565b90565b60e7806102556000396000f300606060405260043610603f576000357c0100000000000000000000000000000000000000000000000000000000900463ffffffff1680638da5cb5b146044575b600080fd5b3415604e57600080fd5b60546096565b604051808273ffffffffffffffffffffffffffffffffffffffff1673ffffffffffffffffffffffffffffffffffffffff16815260200191505060405180910390f35b6000809054906101000a900473ffffffffffffffffffffffffffffffffffffffff16815600a165627a7a723058207f2c9292ffbbd12c49a8b3efb885ae26054605672c2bcff0147010e925cb466b0029a165627a7a72305820ccf649e8f6dcf50a4f15bcc3a7ed1f035d27a4932ce53ea951aa24901dbf6b370029",
  "source": "pragma solidity ^0.4.15;\n\nimport \"./Certificate.sol\";\nimport \"./Owned.sol\";\n\ncontract University {\n    address public owner;\n    address public recognizingBody;\n    string public name;\n    event CertificateAddedLog(\n        address _addressOfAwardee,\n        string  _aadhaarNumberOfAwardee,\n        string _nameOfAwardee,\n        address _addressOfUniversity,\n        string _nameOfUniversity,\n        string _nameOfTheDegree,\n        string _grades,\n        address _owner\n        );\n\n    modifier onlyOwner() {\n      require(msg.sender == owner);\n      _;\n    }\n\n    function University(address _recognizingBody, address _owner, string _name) public {\n        recognizingBody = _recognizingBody;\n        owner = _owner;\n        name = _name;\n    }\n    \n    function addCertificate(\n        address _addressOfAwardee,\n        string _aadhaarNumberOfAwardee,\n        string _nameOfAwardee,\n        string _nameOfTheDegree,\n        string _grades\n        ) public onlyOwner returns(Certificate certificate)\n        {\n        certificate = new Certificate(\n            _addressOfAwardee,\n            _aadhaarNumberOfAwardee,\n            _nameOfAwardee, \n            msg.sender, \n            name,\n            _nameOfTheDegree, \n            _grades);\n\n        CertificateAddedLog(\n            _addressOfAwardee,\n            _aadhaarNumberOfAwardee,\n            _nameOfAwardee, \n            msg.sender, \n            name,\n            _nameOfTheDegree, \n            _grades, \n            owner);    \n    }\n    \n}\n\n",
  "sourcePath": "/home/kishan/CertChain/CertChain/contracts/University.sol",
  "compiler": {
    "name": "solc",
    "version": "0.4.18+commit.9cf6e910.Emscripten.clang"
  },
  "schemaVersion": "1.0.1",
  "updatedAt": "2017-11-11T16:32:32.070Z"
}